{
  "contractName": "Lifeguard",
  "abi": [
    {
      "stateMutability": "payable",
      "type": "fallback",
      "payable": true
    },
    {
      "stateMutability": "payable",
      "type": "receive",
      "payable": true
    },
    {
      "inputs": [
        {
          "internalType": "address",
          "name": "_uniswapFactory",
          "type": "address"
        },
        {
          "internalType": "uint256",
          "name": "_start",
          "type": "uint256"
        },
        {
          "internalType": "uint256",
          "name": "_end",
          "type": "uint256"
        }
      ],
      "name": "fetchAllPoolsAddress",
      "outputs": [
        {
          "components": [
            {
              "internalType": "address",
              "name": "poolAddresses",
              "type": "address"
            },
            {
              "internalType": "address[]",
              "name": "tokens",
              "type": "address[]"
            }
          ],
          "internalType": "struct Lifeguard.tokensAndPoolAddresses[]",
          "name": "",
          "type": "tuple[]"
        }
      ],
      "stateMutability": "view",
      "type": "function",
      "constant": true
    },
    {
      "inputs": [
        {
          "internalType": "address[]",
          "name": "_poolsAddresses",
          "type": "address[]"
        }
      ],
      "name": "getPools",
      "outputs": [
        {
          "components": [
            {
              "internalType": "string",
              "name": "name",
              "type": "string"
            },
            {
              "internalType": "address",
              "name": "pool",
              "type": "address"
            },
            {
              "internalType": "address[]",
              "name": "tokens",
              "type": "address[]"
            },
            {
              "internalType": "uint112[]",
              "name": "reserves",
              "type": "uint112[]"
            },
            {
              "internalType": "uint8[]",
              "name": "decimals",
              "type": "uint8[]"
            },
            {
              "internalType": "string[]",
              "name": "names",
              "type": "string[]"
            }
          ],
          "internalType": "struct Lifeguard.poolObject[]",
          "name": "",
          "type": "tuple[]"
        }
      ],
      "stateMutability": "view",
      "type": "function",
      "constant": true
    },
    {
      "inputs": [
        {
          "internalType": "uint256",
          "name": "_amountIn",
          "type": "uint256"
        },
        {
          "internalType": "address[]",
          "name": "_poolAddresses",
          "type": "address[]"
        },
        {
          "internalType": "address[]",
          "name": "_tokenPath",
          "type": "address[]"
        },
        {
          "internalType": "address",
          "name": "to",
          "type": "address"
        },
        {
          "internalType": "bool",
          "name": "_requiresWrap",
          "type": "bool"
        }
      ],
      "name": "swapExactETHForTokensForETHP",
      "outputs": [
        {
          "internalType": "uint256[]",
          "name": "_amounts",
          "type": "uint256[]"
        }
      ],
      "stateMutability": "payable",
      "type": "function",
      "payable": true
    },
    {
      "inputs": [
        {
          "internalType": "address[]",
          "name": "_orderedTokenAddresses",
          "type": "address[]"
        },
        {
          "internalType": "address[]",
          "name": "_orderedPoolAddresses",
          "type": "address[]"
        },
        {
          "internalType": "bool",
          "name": "_requiresWrap",
          "type": "bool"
        },
        {
          "internalType": "bool",
          "name": "_test",
          "type": "bool"
        }
      ],
      "name": "multipleSwapOnlyPools",
      "outputs": [
        {
          "internalType": "uint256[]",
          "name": "",
          "type": "uint256[]"
        }
      ],
      "stateMutability": "payable",
      "type": "function",
      "payable": true
    },
    {
      "inputs": [
        {
          "internalType": "address[]",
          "name": "_orderedTokenAddresses",
          "type": "address[]"
        },
        {
          "internalType": "address[]",
          "name": "_orderedUniswapRouters",
          "type": "address[]"
        },
        {
          "internalType": "bool",
          "name": "_test",
          "type": "bool"
        }
      ],
      "name": "multipleSwapMultiUni",
      "outputs": [
        {
          "internalType": "uint256[]",
          "name": "",
          "type": "uint256[]"
        }
      ],
      "stateMutability": "payable",
      "type": "function",
      "payable": true
    },
    {
      "inputs": [
        {
          "internalType": "address[]",
          "name": "_orderedTokenAddresses",
          "type": "address[]"
        },
        {
          "internalType": "address",
          "name": "_uniswapRouter",
          "type": "address"
        },
        {
          "internalType": "bool",
          "name": "_test",
          "type": "bool"
        }
      ],
      "name": "multipleSwapUni",
      "outputs": [
        {
          "internalType": "uint256[]",
          "name": "",
          "type": "uint256[]"
        }
      ],
      "stateMutability": "payable",
      "type": "function",
      "payable": true
    },
    {
      "inputs": [
        {
          "internalType": "address[]",
          "name": "_orderedTokenAddresses",
          "type": "address[]"
        },
        {
          "internalType": "address",
          "name": "_uniswapRouter",
          "type": "address"
        },
        {
          "internalType": "bool",
          "name": "_test",
          "type": "bool"
        }
      ],
      "name": "multipleSwapUniCelo",
      "outputs": [
        {
          "internalType": "uint256[]",
          "name": "",
          "type": "uint256[]"
        }
      ],
      "stateMutability": "payable",
      "type": "function",
      "payable": true
    }
  ],
  "bytecode": "0x608060405234801561001057600080fd5b50614546806100206000396000f3fe6080604052600436106100745760003560e01c80635e63547a1161004e5780635e63547a1461011a5780639182ee9114610157578063f4460f6614610187578063f8eb6831146101b75761007b565b80630d0e110f1461007d5780631575d09c146100ba57806345e685e0146100ea5761007b565b3661007b57005b005b34801561008957600080fd5b506100a4600480360381019061009f9190612d4c565b6101e7565b6040516100b19190612f5c565b60405180910390f35b6100d460048036038101906100cf919061310f565b610810565b6040516100e19190613258565b60405180910390f35b61010460048036038101906100ff919061327a565b610d96565b6040516101119190613258565b60405180910390f35b34801561012657600080fd5b50610141600480360381019061013c91906132e9565b6112b4565b60405161014e9190613786565b60405180910390f35b610171600480360381019061016c91906137a8565b611c5d565b60405161017e9190613258565b60405180910390f35b6101a1600480360381019061019c919061327a565b611cf3565b6040516101ae9190613258565b60405180910390f35b6101d160048036038101906101cc9190613847565b612212565b6040516101de9190613258565b60405180910390f35b606060008473ffffffffffffffffffffffffffffffffffffffff1663574f2ba36040518163ffffffff1660e01b8152600401602060405180830381865afa158015610236573d6000803e3d6000fd5b505050506040513d601f19601f8201168201806040525081019061025a919061390f565b90506000838211801561026e575060008414155b610278578161027a565b835b90506000858261028a919061396b565b905060008167ffffffffffffffff8111156102a8576102a7612f94565b5b6040519080825280602002602001820160405280156102e157816020015b6102ce612c28565b8152602001906001900390816102c65790505b509050600087905060005b83811015610800576000600267ffffffffffffffff81111561031157610310612f94565b5b60405190808252806020026020018201604052801561033f5781602001602082028036833780820191505090505b5090508a73ffffffffffffffffffffffffffffffffffffffff16631e3dd18b846040518263ffffffff1660e01b815260040161037b91906139ae565b602060405180830381865afa9250505080156103b557506040513d601f19601f820116820180604052508101906103b291906139de565b60015b6104ac5760008483815181106103ce576103cd613a0b565b5b60200260200101516000019073ffffffffffffffffffffffffffffffffffffffff16908173ffffffffffffffffffffffffffffffffffffffff16815250506000808260008151811061042357610422613a0b565b5b602002602001018360018151811061043e5761043d613a0b565b5b602002602001018273ffffffffffffffffffffffffffffffffffffffff1673ffffffffffffffffffffffffffffffffffffffff168152508273ffffffffffffffffffffffffffffffffffffffff1673ffffffffffffffffffffffffffffffffffffffff1681525050506107ba565b808584815181106104c0576104bf613a0b565b5b60200260200101516000019073ffffffffffffffffffffffffffffffffffffffff16908173ffffffffffffffffffffffffffffffffffffffff16815250508073ffffffffffffffffffffffffffffffffffffffff16630dfe16816040518163ffffffff1660e01b8152600401602060405180830381865afa92505050801561056657506040513d601f19601f8201168201806040525081019061056391906139de565b60015b61060a576000808360008151811061058157610580613a0b565b5b602002602001018460018151811061059c5761059b613a0b565b5b602002602001018273ffffffffffffffffffffffffffffffffffffffff1673ffffffffffffffffffffffffffffffffffffffff168152508273ffffffffffffffffffffffffffffffffffffffff1673ffffffffffffffffffffffffffffffffffffffff1681525050506107b8565b808360008151811061061f5761061e613a0b565b5b602002602001019073ffffffffffffffffffffffffffffffffffffffff16908173ffffffffffffffffffffffffffffffffffffffff16815250508173ffffffffffffffffffffffffffffffffffffffff1663d21220a76040518163ffffffff1660e01b8152600401602060405180830381865afa9250505080156106c157506040513d601f19601f820116820180604052508101906106be91906139de565b60015b61076557600080846000815181106106dc576106db613a0b565b5b60200260200101856001815181106106f7576106f6613a0b565b5b602002602001018273ffffffffffffffffffffffffffffffffffffffff1673ffffffffffffffffffffffffffffffffffffffff168152508273ffffffffffffffffffffffffffffffffffffffff1673ffffffffffffffffffffffffffffffffffffffff1681525050506107b6565b808460018151811061077a57610779613a0b565b5b602002602001019073ffffffffffffffffffffffffffffffffffffffff16908173ffffffffffffffffffffffffffffffffffffffff1681525050505b505b505b808483815181106107ce576107cd613a0b565b5b6020026020010151602001819052506001836107ea9190613a3a565b92505080806107f890613a90565b9150506102ec565b5081955050505050509392505050565b60606000349050606060005b6001875161082a919061396b565b811015610d185786818151811061084457610843613a0b565b5b602002602001015173ffffffffffffffffffffffffffffffffffffffff1663095ea7b387838151811061087a57610879613a0b565b5b60200260200101517fffffffffffffffffffffffffffffffffffffffffffffffffffffffffffffffff6040518363ffffffff1660e01b81526004016108c0929190613ae8565b6020604051808303816000875af11580156108df573d6000803e3d6000fd5b505050506040513d601f19601f820116820180604052508101906109039190613b26565b610942576040517f08c379a000000000000000000000000000000000000000000000000000000000815260040161093990613bb0565b60405180910390fd5b6000600267ffffffffffffffff81111561095f5761095e612f94565b5b60405190808252806020026020018201604052801561098d5781602001602082028036833780820191505090505b5090508782815181106109a3576109a2613a0b565b5b6020026020010151816000815181106109bf576109be613a0b565b5b602002602001019073ffffffffffffffffffffffffffffffffffffffff16908173ffffffffffffffffffffffffffffffffffffffff168152505087600183610a079190613a3a565b81518110610a1857610a17613a0b565b5b602002602001015181600181518110610a3457610a33613a0b565b5b602002602001019073ffffffffffffffffffffffffffffffffffffffff16908173ffffffffffffffffffffffffffffffffffffffff16815250506000821415610b5857868281518110610a8a57610a89613a0b565b5b602002602001015173ffffffffffffffffffffffffffffffffffffffff16637ff36ab5346000843061012c42610ac09190613a3a565b6040518663ffffffff1660e01b8152600401610adf9493929190613c84565b60006040518083038185885af1158015610afd573d6000803e3d6000fd5b50505050506040513d6000823e3d601f19601f82011682018060405250810190610b279190613d93565b92508260018451610b38919061396b565b81518110610b4957610b48613a0b565b5b60200260200101519350610d04565b60028851610b66919061396b565b821015610c4f57868281518110610b8057610b7f613a0b565b5b602002602001015173ffffffffffffffffffffffffffffffffffffffff166338ed1739856000843061012c42610bb69190613a3a565b6040518663ffffffff1660e01b8152600401610bd6959493929190613ddc565b6000604051808303816000875af1158015610bf5573d6000803e3d6000fd5b505050506040513d6000823e3d601f19601f82011682018060405250810190610c1e9190613d93565b92508260018451610c2f919061396b565b81518110610c4057610c3f613a0b565b5b60200260200101519350610d03565b868281518110610c6257610c61613a0b565b5b602002602001015173ffffffffffffffffffffffffffffffffffffffff166318cbafe5856000843361012c42610c989190613a3a565b6040518663ffffffff1660e01b8152600401610cb8959493929190613ddc565b6000604051808303816000875af1158015610cd7573d6000803e3d6000fd5b505050506040513d6000823e3d601f19601f82011682018060405250810190610d009190613d93565b92505b5b508080610d1090613a90565b91505061081c565b50348160018351610d29919061396b565b81518110610d3a57610d39613a0b565b5b60200260200101511180610d4b5750835b610d8a576040517f08c379a0000000000000000000000000000000000000000000000000000000008152600401610d8190613e82565b60405180910390fd5b80925050509392505050565b60606000349050606060005b60018751610db0919061396b565b81101561123657868181518110610dca57610dc9613a0b565b5b602002602001015173ffffffffffffffffffffffffffffffffffffffff1663095ea7b3877fffffffffffffffffffffffffffffffffffffffffffffffffffffffffffffffff6040518363ffffffff1660e01b8152600401610e2c929190613ae8565b6020604051808303816000875af1158015610e4b573d6000803e3d6000fd5b505050506040513d601f19601f82011682018060405250810190610e6f9190613b26565b610eae576040517f08c379a0000000000000000000000000000000000000000000000000000000008152600401610ea590613bb0565b60405180910390fd5b6000600267ffffffffffffffff811115610ecb57610eca612f94565b5b604051908082528060200260200182016040528015610ef95781602001602082028036833780820191505090505b509050878281518110610f0f57610f0e613a0b565b5b602002602001015181600081518110610f2b57610f2a613a0b565b5b602002602001019073ffffffffffffffffffffffffffffffffffffffff16908173ffffffffffffffffffffffffffffffffffffffff168152505087600183610f739190613a3a565b81518110610f8457610f83613a0b565b5b602002602001015181600181518110610fa057610f9f613a0b565b5b602002602001019073ffffffffffffffffffffffffffffffffffffffff16908173ffffffffffffffffffffffffffffffffffffffff168152505060008214156110aa578673ffffffffffffffffffffffffffffffffffffffff16637ff36ab5346000843061012c426110129190613a3a565b6040518663ffffffff1660e01b81526004016110319493929190613c84565b60006040518083038185885af115801561104f573d6000803e3d6000fd5b50505050506040513d6000823e3d601f19601f820116820180604052508101906110799190613d93565b9250826001845161108a919061396b565b8151811061109b5761109a613a0b565b5b60200260200101519350611222565b600288516110b8919061396b565b821015611187578673ffffffffffffffffffffffffffffffffffffffff166338ed1739856000843061012c426110ee9190613a3a565b6040518663ffffffff1660e01b815260040161110e959493929190613ddc565b6000604051808303816000875af115801561112d573d6000803e3d6000fd5b505050506040513d6000823e3d601f19601f820116820180604052508101906111569190613d93565b92508260018451611167919061396b565b8151811061117857611177613a0b565b5b60200260200101519350611221565b8673ffffffffffffffffffffffffffffffffffffffff166318cbafe5856000843361012c426111b69190613a3a565b6040518663ffffffff1660e01b81526004016111d6959493929190613ddc565b6000604051808303816000875af11580156111f5573d6000803e3d6000fd5b505050506040513d6000823e3d601f19601f8201168201806040525081019061121e9190613d93565b92505b5b50808061122e90613a90565b915050610da2565b50348160018351611247919061396b565b8151811061125857611257613a0b565b5b602002602001015111806112695750835b6112a8576040517f08c379a000000000000000000000000000000000000000000000000000000000815260040161129f90613e82565b60405180910390fd5b80925050509392505050565b60606000825167ffffffffffffffff8111156112d3576112d2612f94565b5b60405190808252806020026020018201604052801561130c57816020015b6112f9612c58565b8152602001906001900390816112f15790505b50905060005b8351811015611c535760008482815181106113305761132f613a0b565b5b602002602001015173ffffffffffffffffffffffffffffffffffffffff166306fdde036040518163ffffffff1660e01b8152600401600060405180830381865afa158015611382573d6000803e3d6000fd5b505050506040513d6000823e3d601f19601f820116820180604052508101906113ab9190613f48565b90506000600267ffffffffffffffff8111156113ca576113c9612f94565b5b6040519080825280602002602001820160405280156113f85781602001602082028036833780820191505090505b5090506000600267ffffffffffffffff81111561141857611417612f94565b5b6040519080825280602002602001820160405280156114465781602001602082028036833780820191505090505b5090506000600267ffffffffffffffff81111561146657611465612f94565b5b6040519080825280602002602001820160405280156114945781602001602082028036833780820191505090505b5090506000600267ffffffffffffffff8111156114b4576114b3612f94565b5b6040519080825280602002602001820160405280156114e757816020015b60608152602001906001900390816114d25790505b50905060008987815181106114ff576114fe613a0b565b5b602002602001015173ffffffffffffffffffffffffffffffffffffffff16630dfe16816040518163ffffffff1660e01b8152600401602060405180830381865afa158015611551573d6000803e3d6000fd5b505050506040513d601f19601f8201168201806040525081019061157591906139de565b8a888151811061158857611587613a0b565b5b602002602001015173ffffffffffffffffffffffffffffffffffffffff1663d21220a76040518163ffffffff1660e01b8152600401602060405180830381865afa1580156115da573d6000803e3d6000fd5b505050506040513d601f19601f820116820180604052508101906115fe91906139de565b8660008151811061161257611611613a0b565b5b602002602001018760018151811061162d5761162c613a0b565b5b602002602001018273ffffffffffffffffffffffffffffffffffffffff1673ffffffffffffffffffffffffffffffffffffffff168152508273ffffffffffffffffffffffffffffffffffffffff1673ffffffffffffffffffffffffffffffffffffffff1681525050508987815181106116a9576116a8613a0b565b5b602002602001015173ffffffffffffffffffffffffffffffffffffffff16630902f1ac6040518163ffffffff1660e01b8152600401606060405180830381865afa1580156116fb573d6000803e3d6000fd5b505050506040513d601f19601f8201168201806040525081019061171f9190613ff9565b8660008151811061173357611732613a0b565b5b602002602001018760018151811061174e5761174d613a0b565b5b60200260200101829550836dffffffffffffffffffffffffffff166dffffffffffffffffffffffffffff16815250836dffffffffffffffffffffffffffff166dffffffffffffffffffffffffffff16815250505050846000815181106117b7576117b6613a0b565b5b602002602001015173ffffffffffffffffffffffffffffffffffffffff1663313ce5676040518163ffffffff1660e01b8152600401602060405180830381865afa158015611809573d6000803e3d6000fd5b505050506040513d601f19601f8201168201806040525081019061182d9190614078565b8560018151811061184157611840613a0b565b5b602002602001015173ffffffffffffffffffffffffffffffffffffffff1663313ce5676040518163ffffffff1660e01b8152600401602060405180830381865afa158015611893573d6000803e3d6000fd5b505050506040513d601f19601f820116820180604052508101906118b79190614078565b846000815181106118cb576118ca613a0b565b5b60200260200101856001815181106118e6576118e5613a0b565b5b602002602001018260ff1660ff168152508260ff1660ff1681525050508460008151811061191757611916613a0b565b5b602002602001015173ffffffffffffffffffffffffffffffffffffffff1663313ce5676040518163ffffffff1660e01b8152600401602060405180830381865afa158015611969573d6000803e3d6000fd5b505050506040513d601f19601f8201168201806040525081019061198d9190614078565b856001815181106119a1576119a0613a0b565b5b602002602001015173ffffffffffffffffffffffffffffffffffffffff1663313ce5676040518163ffffffff1660e01b8152600401602060405180830381865afa1580156119f3573d6000803e3d6000fd5b505050506040513d601f19601f82011682018060405250810190611a179190614078565b84600081518110611a2b57611a2a613a0b565b5b6020026020010185600181518110611a4657611a45613a0b565b5b602002602001018260ff1660ff168152508260ff1660ff16815250505084600081518110611a7757611a76613a0b565b5b602002602001015173ffffffffffffffffffffffffffffffffffffffff166306fdde036040518163ffffffff1660e01b8152600401600060405180830381865afa158015611ac9573d6000803e3d6000fd5b505050506040513d6000823e3d601f19601f82011682018060405250810190611af29190613f48565b85600181518110611b0657611b05613a0b565b5b602002602001015173ffffffffffffffffffffffffffffffffffffffff166306fdde036040518163ffffffff1660e01b8152600401600060405180830381865afa158015611b58573d6000803e3d6000fd5b505050506040513d6000823e3d601f19601f82011682018060405250810190611b819190613f48565b83600081518110611b9557611b94613a0b565b5b6020026020010184600181518110611bb057611baf613a0b565b5b6020026020010182905282905250506040518060c001604052808781526020018b8981518110611be357611be2613a0b565b5b602002602001015173ffffffffffffffffffffffffffffffffffffffff16815260200186815260200185815260200184815260200183815250888881518110611c2f57611c2e613a0b565b5b60200260200101819052505050505050508080611c4b90613a90565b915050611312565b5080915050919050565b606060003490506060611c738287893389612212565b9050348160018351611c85919061396b565b81518110611c9657611c95613a0b565b5b60200260200101511180611ca75750835b611ce6576040517f08c379a0000000000000000000000000000000000000000000000000000000008152600401611cdd90613e82565b60405180910390fd5b8092505050949350505050565b60606000349050606060005b60018751611d0d919061396b565b81101561219457868181518110611d2757611d26613a0b565b5b602002602001015173ffffffffffffffffffffffffffffffffffffffff1663095ea7b3877fffffffffffffffffffffffffffffffffffffffffffffffffffffffffffffffff6040518363ffffffff1660e01b8152600401611d89929190613ae8565b6020604051808303816000875af1158015611da8573d6000803e3d6000fd5b505050506040513d601f19601f82011682018060405250810190611dcc9190613b26565b611e0b576040517f08c379a0000000000000000000000000000000000000000000000000000000008152600401611e0290613bb0565b60405180910390fd5b6000600267ffffffffffffffff811115611e2857611e27612f94565b5b604051908082528060200260200182016040528015611e565781602001602082028036833780820191505090505b509050878281518110611e6c57611e6b613a0b565b5b602002602001015181600081518110611e8857611e87613a0b565b5b602002602001019073ffffffffffffffffffffffffffffffffffffffff16908173ffffffffffffffffffffffffffffffffffffffff168152505087600183611ed09190613a3a565b81518110611ee157611ee0613a0b565b5b602002602001015181600181518110611efd57611efc613a0b565b5b602002602001019073ffffffffffffffffffffffffffffffffffffffff16908173ffffffffffffffffffffffffffffffffffffffff16815250506000821415612008578673ffffffffffffffffffffffffffffffffffffffff166338ed1739856000843061012c42611f6f9190613a3a565b6040518663ffffffff1660e01b8152600401611f8f959493929190613ddc565b6000604051808303816000875af1158015611fae573d6000803e3d6000fd5b505050506040513d6000823e3d601f19601f82011682018060405250810190611fd79190613d93565b92508260018451611fe8919061396b565b81518110611ff957611ff8613a0b565b5b60200260200101519350612180565b60028851612016919061396b565b8210156120e5578673ffffffffffffffffffffffffffffffffffffffff166338ed1739856000843061012c4261204c9190613a3a565b6040518663ffffffff1660e01b815260040161206c959493929190613ddc565b6000604051808303816000875af115801561208b573d6000803e3d6000fd5b505050506040513d6000823e3d601f19601f820116820180604052508101906120b49190613d93565b925082600184516120c5919061396b565b815181106120d6576120d5613a0b565b5b6020026020010151935061217f565b8673ffffffffffffffffffffffffffffffffffffffff166338ed1739856000843361012c426121149190613a3a565b6040518663ffffffff1660e01b8152600401612134959493929190613ddc565b6000604051808303816000875af1158015612153573d6000803e3d6000fd5b505050506040513d6000823e3d601f19601f8201168201806040525081019061217c9190613d93565b92505b5b50808061218c90613a90565b915050611cff565b503481600183516121a5919061396b565b815181106121b6576121b5613a0b565b5b602002602001015111806121c75750835b612206576040517f08c379a00000000000000000000000000000000000000000000000000000000081526004016121fd90613e82565b60405180910390fd5b80925050509392505050565b606061221f868686612495565b905081156122bf578360008151811061223b5761223a613a0b565b5b602002602001015173ffffffffffffffffffffffffffffffffffffffff1663d0e30db08260008151811061227257612271613a0b565b5b60200260200101516040518263ffffffff1660e01b81526004016000604051808303818588803b1580156122a557600080fd5b505af11580156122b9573d6000803e3d6000fd5b50505050505b836000815181106122d3576122d2613a0b565b5b602002602001015173ffffffffffffffffffffffffffffffffffffffff1663a9059cbb8660008151811061230a57612309613a0b565b5b60200260200101518360008151811061232657612325613a0b565b5b60200260200101516040518363ffffffff1660e01b815260040161234b929190613ae8565b6020604051808303816000875af115801561236a573d6000803e3d6000fd5b505050506040513d601f19601f8201168201806040525081019061238e9190613b26565b61239b5761239a6140a5565b5b6123a78186863061263a565b811561245b57836000815181106123c1576123c0613a0b565b5b602002602001015173ffffffffffffffffffffffffffffffffffffffff16632e1a7d4d82600184516123f3919061396b565b8151811061240457612403613a0b565b5b60200260200101516040518263ffffffff1660e01b815260040161242891906139ae565b600060405180830381600087803b15801561244257600080fd5b505af1158015612456573d6000803e3d6000fd5b505050505b61248c83826001845161246e919061396b565b8151811061247f5761247e613a0b565b5b602002602001015161285a565b95945050505050565b60606002825110156124dc576040517f08c379a00000000000000000000000000000000000000000000000000000000081526004016124d390614120565b60405180910390fd5b815167ffffffffffffffff8111156124f7576124f6612f94565b5b6040519080825280602002602001820160405280156125255781602001602082028036833780820191505090505b509050838160008151811061253d5761253c613a0b565b5b60200260200101818152505060005b6001835161255a919061396b565b811015612632576000806125c986848151811061257a57612579613a0b565b5b602002602001015186858151811061259557612594613a0b565b5b6020026020010151876001876125ab9190613a3a565b815181106125bc576125bb613a0b565b5b602002602001015161295a565b915091506125f28484815181106125e3576125e2613a0b565b5b60200260200101518383612a53565b846001856126009190613a3a565b8151811061261157612610613a0b565b5b6020026020010181815250505050808061262a90613a90565b91505061254c565b509392505050565b60005b6001835161264b919061396b565b8110156128535760008084838151811061266857612667613a0b565b5b60200260200101518560018561267e9190613a3a565b8151811061268f5761268e613a0b565b5b60200260200101519150915060006126a78383612afa565b5090506000886001866126ba9190613a3a565b815181106126cb576126ca613a0b565b5b602002602001015190506000808373ffffffffffffffffffffffffffffffffffffffff168673ffffffffffffffffffffffffffffffffffffffff161461271357826000612717565b6000835b91509150600060028a5161272b919061396b565b8810612737578861275f565b8a6001896127459190613a3a565b8151811061275657612755613a0b565b5b60200260200101515b90508a888151811061277457612773613a0b565b5b602002602001015173ffffffffffffffffffffffffffffffffffffffff1663022c0d9f848484600067ffffffffffffffff8111156127b5576127b4612f94565b5b6040519080825280601f01601f1916602001820160405280156127e75781602001600182028036833780820191505090505b506040518563ffffffff1660e01b81526004016128079493929190614195565b600060405180830381600087803b15801561282157600080fd5b505af1158015612835573d6000803e3d6000fd5b5050505050505050505050808061284b90613a90565b91505061263d565b5050505050565b60008273ffffffffffffffffffffffffffffffffffffffff1682600067ffffffffffffffff81111561288f5761288e612f94565b5b6040519080825280601f01601f1916602001820160405280156128c15781602001600182028036833780820191505090505b506040516128cf919061421d565b60006040518083038185875af1925050503d806000811461290c576040519150601f19603f3d011682016040523d82523d6000602084013e612911565b606091505b5050905080612955576040517f08c379a000000000000000000000000000000000000000000000000000000000815260040161294c906142a6565b60405180910390fd5b505050565b60008060006129698585612afa565b5090506000808773ffffffffffffffffffffffffffffffffffffffff16630902f1ac6040518163ffffffff1660e01b8152600401606060405180830381865afa1580156129ba573d6000803e3d6000fd5b505050506040513d601f19601f820116820180604052508101906129de9190613ff9565b506dffffffffffffffffffffffffffff1691506dffffffffffffffffffffffffffff1691508273ffffffffffffffffffffffffffffffffffffffff168773ffffffffffffffffffffffffffffffffffffffff1614612a3d578082612a40565b81815b8095508196505050505050935093915050565b60008083118015612a645750600082115b612aa3576040517f08c379a0000000000000000000000000000000000000000000000000000000008152600401612a9a90614338565b60405180910390fd5b60006103e585612ab39190614358565b905060008382612ac39190614358565b90506000826103e887612ad69190614358565b612ae09190613a3a565b90508082612aee91906143e1565b93505050509392505050565b6000808273ffffffffffffffffffffffffffffffffffffffff168473ffffffffffffffffffffffffffffffffffffffff161415612b6c576040517f08c379a0000000000000000000000000000000000000000000000000000000008152600401612b6390614484565b60405180910390fd5b8273ffffffffffffffffffffffffffffffffffffffff168473ffffffffffffffffffffffffffffffffffffffff1610612ba6578284612ba9565b83835b8092508193505050600073ffffffffffffffffffffffffffffffffffffffff168273ffffffffffffffffffffffffffffffffffffffff161415612c21576040517f08c379a0000000000000000000000000000000000000000000000000000000008152600401612c18906144f0565b60405180910390fd5b9250929050565b6040518060400160405280600073ffffffffffffffffffffffffffffffffffffffff168152602001606081525090565b6040518060c0016040528060608152602001600073ffffffffffffffffffffffffffffffffffffffff168152602001606081526020016060815260200160608152602001606081525090565b6000604051905090565b600080fd5b600080fd5b600073ffffffffffffffffffffffffffffffffffffffff82169050919050565b6000612ce382612cb8565b9050919050565b612cf381612cd8565b8114612cfe57600080fd5b50565b600081359050612d1081612cea565b92915050565b6000819050919050565b612d2981612d16565b8114612d3457600080fd5b50565b600081359050612d4681612d20565b92915050565b600080600060608486031215612d6557612d64612cae565b5b6000612d7386828701612d01565b9350506020612d8486828701612d37565b9250506040612d9586828701612d37565b9150509250925092565b600081519050919050565b600082825260208201905092915050565b6000819050602082019050919050565b612dd481612cd8565b82525050565b600081519050919050565b600082825260208201905092915050565b6000819050602082019050919050565b6000612e128383612dcb565b60208301905092915050565b6000602082019050919050565b6000612e3682612dda565b612e408185612de5565b9350612e4b83612df6565b8060005b83811015612e7c578151612e638882612e06565b9750612e6e83612e1e565b925050600181019050612e4f565b5085935050505092915050565b6000604083016000830151612ea16000860182612dcb565b5060208301518482036020860152612eb98282612e2b565b9150508091505092915050565b6000612ed28383612e89565b905092915050565b6000602082019050919050565b6000612ef282612d9f565b612efc8185612daa565b935083602082028501612f0e85612dbb565b8060005b85811015612f4a5784840389528151612f2b8582612ec6565b9450612f3683612eda565b925060208a01995050600181019050612f12565b50829750879550505050505092915050565b60006020820190508181036000830152612f768184612ee7565b905092915050565b600080fd5b6000601f19601f8301169050919050565b7f4e487b7100000000000000000000000000000000000000000000000000000000600052604160045260246000fd5b612fcc82612f83565b810181811067ffffffffffffffff82111715612feb57612fea612f94565b5b80604052505050565b6000612ffe612ca4565b905061300a8282612fc3565b919050565b600067ffffffffffffffff82111561302a57613029612f94565b5b602082029050602081019050919050565b600080fd5b600061305361304e8461300f565b612ff4565b905080838252602082019050602084028301858111156130765761307561303b565b5b835b8181101561309f578061308b8882612d01565b845260208401935050602081019050613078565b5050509392505050565b600082601f8301126130be576130bd612f7e565b5b81356130ce848260208601613040565b91505092915050565b60008115159050919050565b6130ec816130d7565b81146130f757600080fd5b50565b600081359050613109816130e3565b92915050565b60008060006060848603121561312857613127612cae565b5b600084013567ffffffffffffffff81111561314657613145612cb3565b5b613152868287016130a9565b935050602084013567ffffffffffffffff81111561317357613172612cb3565b5b61317f868287016130a9565b9250506040613190868287016130fa565b9150509250925092565b600081519050919050565b600082825260208201905092915050565b6000819050602082019050919050565b6131cf81612d16565b82525050565b60006131e183836131c6565b60208301905092915050565b6000602082019050919050565b60006132058261319a565b61320f81856131a5565b935061321a836131b6565b8060005b8381101561324b57815161323288826131d5565b975061323d836131ed565b92505060018101905061321e565b5085935050505092915050565b6000602082019050818103600083015261327281846131fa565b905092915050565b60008060006060848603121561329357613292612cae565b5b600084013567ffffffffffffffff8111156132b1576132b0612cb3565b5b6132bd868287016130a9565b93505060206132ce86828701612d01565b92505060406132df868287016130fa565b9150509250925092565b6000602082840312156132ff576132fe612cae565b5b600082013567ffffffffffffffff81111561331d5761331c612cb3565b5b613329848285016130a9565b91505092915050565b600081519050919050565b600082825260208201905092915050565b6000819050602082019050919050565b600081519050919050565b600082825260208201905092915050565b60005b8381101561339857808201518184015260208101905061337d565b838111156133a7576000848401525b50505050565b60006133b88261335e565b6133c28185613369565b93506133d281856020860161337a565b6133db81612f83565b840191505092915050565b600081519050919050565b600082825260208201905092915050565b6000819050602082019050919050565b60006dffffffffffffffffffffffffffff82169050919050565b61343581613412565b82525050565b6000613447838361342c565b60208301905092915050565b6000602082019050919050565b600061346b826133e6565b61347581856133f1565b935061348083613402565b8060005b838110156134b1578151613498888261343b565b97506134a383613453565b925050600181019050613484565b5085935050505092915050565b600081519050919050565b600082825260208201905092915050565b6000819050602082019050919050565b600060ff82169050919050565b613500816134ea565b82525050565b600061351283836134f7565b60208301905092915050565b6000602082019050919050565b6000613536826134be565b61354081856134c9565b935061354b836134da565b8060005b8381101561357c5781516135638882613506565b975061356e8361351e565b92505060018101905061354f565b5085935050505092915050565b600081519050919050565b600082825260208201905092915050565b6000819050602082019050919050565b60006135c183836133ad565b905092915050565b6000602082019050919050565b60006135e182613589565b6135eb8185613594565b9350836020820285016135fd856135a5565b8060005b85811015613639578484038952815161361a85826135b5565b9450613625836135c9565b925060208a01995050600181019050613601565b50829750879550505050505092915050565b600060c083016000830151848203600086015261366882826133ad565b915050602083015161367d6020860182612dcb565b50604083015184820360408601526136958282612e2b565b915050606083015184820360608601526136af8282613460565b915050608083015184820360808601526136c9828261352b565b91505060a083015184820360a08601526136e382826135d6565b9150508091505092915050565b60006136fc838361364b565b905092915050565b6000602082019050919050565b600061371c82613332565b613726818561333d565b9350836020820285016137388561334e565b8060005b85811015613774578484038952815161375585826136f0565b945061376083613704565b925060208a0199505060018101905061373c565b50829750879550505050505092915050565b600060208201905081810360008301526137a08184613711565b905092915050565b600080600080608085870312156137c2576137c1612cae565b5b600085013567ffffffffffffffff8111156137e0576137df612cb3565b5b6137ec878288016130a9565b945050602085013567ffffffffffffffff81111561380d5761380c612cb3565b5b613819878288016130a9565b935050604061382a878288016130fa565b925050606061383b878288016130fa565b91505092959194509250565b600080600080600060a0868803121561386357613862612cae565b5b600061387188828901612d37565b955050602086013567ffffffffffffffff81111561389257613891612cb3565b5b61389e888289016130a9565b945050604086013567ffffffffffffffff8111156138bf576138be612cb3565b5b6138cb888289016130a9565b93505060606138dc88828901612d01565b92505060806138ed888289016130fa565b9150509295509295909350565b60008151905061390981612d20565b92915050565b60006020828403121561392557613924612cae565b5b6000613933848285016138fa565b91505092915050565b7f4e487b7100000000000000000000000000000000000000000000000000000000600052601160045260246000fd5b600061397682612d16565b915061398183612d16565b9250828210156139945761399361393c565b5b828203905092915050565b6139a881612d16565b82525050565b60006020820190506139c3600083018461399f565b92915050565b6000815190506139d881612cea565b92915050565b6000602082840312156139f4576139f3612cae565b5b6000613a02848285016139c9565b91505092915050565b7f4e487b7100000000000000000000000000000000000000000000000000000000600052603260045260246000fd5b6000613a4582612d16565b9150613a5083612d16565b9250827fffffffffffffffffffffffffffffffffffffffffffffffffffffffffffffffff03821115613a8557613a8461393c565b5b828201905092915050565b6000613a9b82612d16565b91507fffffffffffffffffffffffffffffffffffffffffffffffffffffffffffffffff821415613ace57613acd61393c565b5b600182019050919050565b613ae281612cd8565b82525050565b6000604082019050613afd6000830185613ad9565b613b0a602083018461399f565b9392505050565b600081519050613b20816130e3565b92915050565b600060208284031215613b3c57613b3b612cae565b5b6000613b4a84828501613b11565b91505092915050565b600082825260208201905092915050565b7f417070726f7665204661696c6564210000000000000000000000000000000000600082015250565b6000613b9a600f83613b53565b9150613ba582613b64565b602082019050919050565b60006020820190508181036000830152613bc981613b8d565b9050919050565b6000819050919050565b6000819050919050565b6000613bff613bfa613bf584613bd0565b613bda565b612d16565b9050919050565b613c0f81613be4565b82525050565b600082825260208201905092915050565b6000613c3182612dda565b613c3b8185613c15565b9350613c4683612df6565b8060005b83811015613c77578151613c5e8882612e06565b9750613c6983612e1e565b925050600181019050613c4a565b5085935050505092915050565b6000608082019050613c996000830187613c06565b8181036020830152613cab8186613c26565b9050613cba6040830185613ad9565b613cc7606083018461399f565b95945050505050565b600067ffffffffffffffff821115613ceb57613cea612f94565b5b602082029050602081019050919050565b6000613d0f613d0a84613cd0565b612ff4565b90508083825260208201905060208402830185811115613d3257613d3161303b565b5b835b81811015613d5b5780613d4788826138fa565b845260208401935050602081019050613d34565b5050509392505050565b600082601f830112613d7a57613d79612f7e565b5b8151613d8a848260208601613cfc565b91505092915050565b600060208284031215613da957613da8612cae565b5b600082015167ffffffffffffffff811115613dc757613dc6612cb3565b5b613dd384828501613d65565b91505092915050565b600060a082019050613df1600083018861399f565b613dfe6020830187613c06565b8181036040830152613e108186613c26565b9050613e1f6060830185613ad9565b613e2c608083018461399f565b9695505050505050565b7f417262697472616765206661696c656400000000000000000000000000000000600082015250565b6000613e6c601083613b53565b9150613e7782613e36565b602082019050919050565b60006020820190508181036000830152613e9b81613e5f565b9050919050565b600080fd5b600067ffffffffffffffff821115613ec257613ec1612f94565b5b613ecb82612f83565b9050602081019050919050565b6000613eeb613ee684613ea7565b612ff4565b905082815260208101848484011115613f0757613f06613ea2565b5b613f1284828561337a565b509392505050565b600082601f830112613f2f57613f2e612f7e565b5b8151613f3f848260208601613ed8565b91505092915050565b600060208284031215613f5e57613f5d612cae565b5b600082015167ffffffffffffffff811115613f7c57613f7b612cb3565b5b613f8884828501613f1a565b91505092915050565b613f9a81613412565b8114613fa557600080fd5b50565b600081519050613fb781613f91565b92915050565b600063ffffffff82169050919050565b613fd681613fbd565b8114613fe157600080fd5b50565b600081519050613ff381613fcd565b92915050565b60008060006060848603121561401257614011612cae565b5b600061402086828701613fa8565b935050602061403186828701613fa8565b925050604061404286828701613fe4565b9150509250925092565b614055816134ea565b811461406057600080fd5b50565b6000815190506140728161404c565b92915050565b60006020828403121561408e5761408d612cae565b5b600061409c84828501614063565b91505092915050565b7f4e487b7100000000000000000000000000000000000000000000000000000000600052600160045260246000fd5b7f556e697377617056324c6962726172793a20494e56414c49445f504154480000600082015250565b600061410a601e83613b53565b9150614115826140d4565b602082019050919050565b60006020820190508181036000830152614139816140fd565b9050919050565b600081519050919050565b600082825260208201905092915050565b600061416782614140565b614171818561414b565b935061418181856020860161337a565b61418a81612f83565b840191505092915050565b60006080820190506141aa600083018761399f565b6141b7602083018661399f565b6141c46040830185613ad9565b81810360608301526141d6818461415c565b905095945050505050565b600081905092915050565b60006141f782614140565b61420181856141e1565b935061421181856020860161337a565b80840191505092915050565b600061422982846141ec565b915081905092915050565b7f5472616e7366657248656c7065723a3a736166655472616e736665724554483a60008201527f20455448207472616e73666572206661696c6564000000000000000000000000602082015250565b6000614290603483613b53565b915061429b82614234565b604082019050919050565b600060208201905081810360008301526142bf81614283565b9050919050565b7f556e697377617056324c6962726172793a20494e53554646494349454e545f4c60008201527f4951554944495459000000000000000000000000000000000000000000000000602082015250565b6000614322602883613b53565b915061432d826142c6565b604082019050919050565b6000602082019050818103600083015261435181614315565b9050919050565b600061436382612d16565b915061436e83612d16565b9250817fffffffffffffffffffffffffffffffffffffffffffffffffffffffffffffffff04831182151516156143a7576143a661393c565b5b828202905092915050565b7f4e487b7100000000000000000000000000000000000000000000000000000000600052601260045260246000fd5b60006143ec82612d16565b91506143f783612d16565b925082614407576144066143b2565b5b828204905092915050565b7f556e697377617056324c6962726172793a204944454e544943414c5f4144445260008201527f4553534553000000000000000000000000000000000000000000000000000000602082015250565b600061446e602583613b53565b915061447982614412565b604082019050919050565b6000602082019050818103600083015261449d81614461565b9050919050565b7f556e697377617056324c6962726172793a205a45524f5f414444524553530000600082015250565b60006144da601e83613b53565b91506144e5826144a4565b602082019050919050565b60006020820190508181036000830152614509816144cd565b905091905056fea2646970667358221220aa0f4691cccf6b41763a2ba3e309938861791ce3d6b4a06b89d45cafc90d729b64736f6c634300080c0033",
  "immutableReferences": {},
  "source": "//SPDX-License-Identifier: MIT\r\npragma solidity 0.8.12;\r\n\r\n// import \"./IUniswapV2Pair.sol\";\r\n\r\ninterface IUniswapV2Pair {\r\n    function token0() external view returns (address);\r\n    function token1() external view returns (address);\r\n    function name() external pure returns (string memory);\r\n    function getReserves() external view returns (uint112 reserve0, uint112 reserve1, uint32 blockTimestampLast);\r\n    function swap(uint amount0Out, uint amount1Out, address to, bytes calldata data) external;\r\n}\r\n\r\ninterface IWETH {\r\n    function deposit() external payable;\r\n    function withdraw(uint) external;\r\n    function transfer(address to, uint value) external returns (bool);\r\n}\r\n\r\ninterface IERC20 {\r\n    function decimals() external view returns (uint8);\r\n    function name() external view returns (string memory);\r\n    function approve(address spender, uint amount) external returns (bool);\r\n    function balanceOf(address account) external view returns (uint256);\r\n    function transferFrom(address sender, address recipient, uint256 amount) external returns (bool);\r\n    function transfer(address to, uint value) external returns (bool);\r\n}\r\n\r\ninterface IUniswapV2Factory {\r\n    function allPairs(uint) external view returns (address pair);\r\n    function allPairsLength() external view returns (uint);\r\n}\r\n\r\ninterface IUniswapV2Router {\r\n    function getAmountOut(uint amountIn, uint reserveIn, uint reserveOut) external pure returns (uint amountOut);\r\n    function getAmountIn(uint amountOut, uint reserveIn, uint reserveOut) external pure returns (uint amountIn);\r\n    function swapExactETHForTokens(uint amountOutMin, address[] calldata path, address to, uint deadline)\r\n        external\r\n        payable\r\n        returns (uint[] memory amounts);\r\n    function swapExactTokensForTokens(\r\n        uint amountIn,\r\n        uint amountOutMin,\r\n        address[] calldata path,\r\n        address to,\r\n        uint deadline\r\n    ) external returns (uint[] memory amounts);\r\n    function swapExactTokensForETH(uint amountIn, uint amountOutMin, address[] calldata path, address to, uint deadline)\r\n        external\r\n        returns (uint[] memory amounts);\r\n}\r\n\r\ncontract Lifeguard{\r\n\r\n    struct poolObject{\r\n        string name;\r\n        address pool;\r\n        address[] tokens;\r\n        uint112[] reserves;\r\n        uint8[] decimals;\r\n        string[] names;\r\n    }\r\n\r\n    struct poolsInADex{\r\n        tokensAndPoolAddresses[] pools;\r\n    }\r\n\r\n    struct tokensAndPoolAddresses{\r\n        address poolAddresses;\r\n        address[] tokens;\r\n    }\r\n\r\n    function fetchAllPoolsAddress (address _uniswapFactory,uint _start, uint _end) public view returns(tokensAndPoolAddresses[] memory){\r\n        uint _length = IUniswapV2Factory(_uniswapFactory).allPairsLength();\r\n        uint _cap = _length>_end && _end!=0?_end:_length;\r\n        uint _arrayLength =_cap-_start; \r\n        tokensAndPoolAddresses[] memory _allPoolsInThisDex = new tokensAndPoolAddresses[](_arrayLength);\r\n        uint z = _start;\r\n        for(uint j=0;j<_arrayLength;j++){\r\n            address[] memory _tokens = new address[](2);\r\n            try IUniswapV2Factory(_uniswapFactory).allPairs(z) returns(address _A){\r\n                _allPoolsInThisDex[j].poolAddresses=_A;\r\n                try IUniswapV2Pair(_A).token0() returns(address _B){\r\n                    _tokens[0] = _B;\r\n                    try IUniswapV2Pair(_A).token1() returns(address _C){\r\n                        _tokens[1] = _C;\r\n                    }catch{\r\n                        (_tokens[0],_tokens[1]) =(address(0),address(0));\r\n                    }\r\n                }catch{\r\n                    (_tokens[0],_tokens[1]) =(address(0),address(0));\r\n                }\r\n            }catch{\r\n                _allPoolsInThisDex[j].poolAddresses=address(0);\r\n                (_tokens[0],_tokens[1]) =(address(0),address(0));\r\n            }\r\n            // (_tokens[0],_tokens[1]) = (IUniswapV2Pair(_allPoolsInThisDex[j].poolAddresses).token0(),IUniswapV2Pair(_allPoolsInThisDex[j].poolAddresses).token1());\r\n            _allPoolsInThisDex[j].tokens = _tokens;\r\n            z+=1;\r\n        }\r\n        return _allPoolsInThisDex;\r\n    } \r\n\r\n    function getPools(address [] memory _poolsAddresses) public view returns(poolObject[]memory){ \r\n        poolObject[]memory pools = new poolObject[](_poolsAddresses.length); \r\n        for(uint i=0;i<_poolsAddresses.length;i++){\r\n            string memory _name = IUniswapV2Pair(_poolsAddresses[i]).name();\r\n            address [] memory _tokens = new address[](2);\r\n            uint112[] memory _reserves = new uint112[](2);\r\n            uint8[] memory _decimals = new uint8[](2);\r\n            string[] memory _names = new string[](2);\r\n            uint32 timestamp;\r\n            ( _tokens[0],_tokens[1]) = (IUniswapV2Pair(_poolsAddresses[i]).token0(),IUniswapV2Pair(_poolsAddresses[i]).token1());\r\n            (_reserves[0], _reserves[1], timestamp) = IUniswapV2Pair(_poolsAddresses[i]).getReserves();\r\n            (_decimals[0],_decimals[1]) = (IERC20(_tokens[0]).decimals(),IERC20(_tokens[1]).decimals());\r\n            (_decimals[0],_decimals[1]) = (IERC20(_tokens[0]).decimals(),IERC20(_tokens[1]).decimals());\r\n            (_names[0],_names[1]) = (IERC20(_tokens[0]).name(),IERC20(_tokens[1]).name());\r\n            pools[i]=poolObject(_name,_poolsAddresses[i],_tokens,_reserves,_decimals,_names);\r\n        }\r\n        return pools;\r\n    }\r\n\r\n    function sortTokens(address tokenA, address tokenB) internal pure returns (address token0, address token1) {\r\n        require(tokenA != tokenB, 'UniswapV2Library: IDENTICAL_ADDRESSES');\r\n        (token0, token1) = tokenA < tokenB ? (tokenA, tokenB) : (tokenB, tokenA);\r\n        require(token0 != address(0), 'UniswapV2Library: ZERO_ADDRESS');\r\n    }\r\n\r\n    function getReservesP(address _poolAddress, address tokenA, address tokenB) internal view returns (uint reserveA, uint reserveB) {\r\n        (address token0,) = sortTokens(tokenA, tokenB);\r\n        (uint reserve0, uint reserve1,) = IUniswapV2Pair(_poolAddress).getReserves();\r\n        (reserveA, reserveB) = tokenA == token0 ? (reserve0, reserve1) : (reserve1, reserve0);\r\n    }\r\n\r\n    function getAmountOutP(uint amountIn, uint reserveIn, uint reserveOut) internal pure returns (uint amountOut) {\r\n        // require(amountIn > 0, 'UniswapV2Library: INSUFFICIENT_INPUT_AMOUNT');\r\n        require(reserveIn > 0 && reserveOut > 0, 'UniswapV2Library: INSUFFICIENT_LIQUIDITY');\r\n        uint amountInWithFee = amountIn*997;\r\n        uint numerator = amountInWithFee*reserveOut;\r\n        uint denominator = (reserveIn*1000)+amountInWithFee;\r\n        amountOut = numerator / denominator;\r\n    }\r\n\r\n    function getAmountsOutP(uint amountIn, address[] memory _poolAddresses, address[]memory _tokenPath) internal view returns (uint[] memory amounts) {\r\n        require(_tokenPath.length >= 2, 'UniswapV2Library: INVALID_PATH');\r\n        amounts = new uint[](_tokenPath.length);\r\n        amounts[0] = amountIn;\r\n        for (uint i; i < _tokenPath.length - 1; i++) {\r\n            (uint reserveIn, uint reserveOut) = getReservesP(_poolAddresses[i], _tokenPath[i], _tokenPath[i + 1]);\r\n            amounts[i + 1] = getAmountOutP(amounts[i], reserveIn, reserveOut);\r\n        }\r\n    }\r\n\r\n    function safeTransferFrom(\r\n        address token,\r\n        address from,\r\n        address to,\r\n        uint256 value\r\n    ) internal {\r\n        // bytes4(keccak256(bytes('transferFrom(address,address,uint256)')));\r\n        (bool success, bytes memory data) = token.call(abi.encodeWithSelector(0x23b872dd, from, to, value));\r\n        require(\r\n            success && (data.length == 0 || abi.decode(data, (bool))),\r\n            'TransferHelper::transferFrom: transferFrom failed'\r\n        );\r\n    }\r\n\r\n    function safeTransferETH(address to, uint256 value) internal {\r\n        (bool success, ) = to.call{value: value}(new bytes(0));\r\n        require(success, 'TransferHelper::safeTransferETH: ETH transfer failed');\r\n    }\r\n\r\n    function _swapP(uint[] memory amounts, address[]memory _poolAddresses, address[]memory _tokenPath, address _to) internal virtual {\r\n        for (uint i; i < _tokenPath.length - 1; i++) {\r\n            (address input, address output) = (_tokenPath[i], _tokenPath[i + 1]);\r\n            (address token0,) = sortTokens(input, output);\r\n            uint amountOut = amounts[i + 1];\r\n            (uint amount0Out, uint amount1Out) = input == token0 ? (uint(0), amountOut) : (amountOut, uint(0));\r\n            address to = i < _tokenPath.length - 2 ? _poolAddresses[i+1] : _to;\r\n            IUniswapV2Pair(_poolAddresses[i]).swap(\r\n                amount0Out, amount1Out, to, new bytes(0)\r\n            );\r\n        }\r\n    }\r\n\r\n    // function swapExactETHForTokensP(uint _amountIn,address[]memory _poolAddresses, address[]memory _tokenPath, address to) public payable returns (uint[] memory _amounts){\r\n    //     _amounts = getAmountsOutP(_amountIn,_poolAddresses,_tokenPath);\r\n    //     IWETH(_tokenPath[0]).deposit{value: _amounts[0]}();\r\n    //     assert(IWETH(_tokenPath[0]).transfer(_poolAddresses[0], _amounts[0]));\r\n    //     _swapP(_amounts, _poolAddresses, _tokenPath, to);\r\n    // }\r\n\r\n    // function swapExactTokensForETHP(uint _amountIn, address[]memory _poolAddresses, address[]memory _tokenPath, address to) public payable returns (uint[] memory _amounts){\r\n    //     _amounts =  getAmountsOutP(_amountIn,_poolAddresses,_tokenPath);\r\n    //     safeTransferFrom(\r\n    //         _tokenPath[0], address(this), _poolAddresses[0], _amounts[0]\r\n    //     );\r\n    //     _swapP(_amounts, _poolAddresses, _tokenPath, address(this));\r\n    //     IWETH(_tokenPath[_tokenPath.length-1]).withdraw(_amounts[_amounts.length - 1]);\r\n    //     safeTransferETH(to, _amounts[_amounts.length - 1]);\r\n    // }\r\n\r\n    receive() external payable {}\r\n\r\n    fallback() external payable {}\r\n\r\n    function swapExactETHForTokensForETHP(uint _amountIn,address[]memory _poolAddresses, address[]memory _tokenPath, address to, bool _requiresWrap) public payable returns (uint[] memory _amounts){\r\n        _amounts = getAmountsOutP(_amountIn,_poolAddresses,_tokenPath);\r\n        if(_requiresWrap){\r\n            IWETH(_tokenPath[0]).deposit{value: _amounts[0]}();\r\n        }\r\n        assert(IWETH(_tokenPath[0]).transfer(_poolAddresses[0], _amounts[0]));\r\n        _swapP(_amounts, _poolAddresses, _tokenPath, address(this));\r\n        // require(_amounts[_amounts.length-1]<IERC20(_tokenPath[_tokenPath.length-1]).balanceOf(msg.sender),\"Amount out e maggiore del saldo\");\r\n        // uint _balance = IERC20(_tokenPath[0]).balanceOf(address(this));\r\n        // require(IERC20(_tokenPath[0]).approve(address(this), _amounts[_amounts.length - 1]),\"Approve failed\");\r\n        if(_requiresWrap){\r\n            IWETH(_tokenPath[0]).withdraw(_amounts[_amounts.length - 1]);\r\n        }\r\n        safeTransferETH(to, _amounts[_amounts.length - 1]);\r\n    }\r\n\r\n    function multipleSwapOnlyPools(address[]memory _orderedTokenAddresses, address[]memory _orderedPoolAddresses, bool _requiresWrap, bool _test) public payable returns(uint[] memory){\r\n        uint lastOutput = msg.value;\r\n        uint[] memory _amounts;\r\n        _amounts = swapExactETHForTokensForETHP(lastOutput, _orderedPoolAddresses, _orderedTokenAddresses, msg.sender, _requiresWrap);\r\n        require(_amounts[_amounts.length-1]>msg.value || _test, \"Arbitrage failed\");\r\n        return _amounts;\r\n    }\r\n\r\n    function multipleSwapMultiUni(address[]memory _orderedTokenAddresses, address[]memory _orderedUniswapRouters, bool _test) public payable returns(uint[] memory){\r\n        //forse il metodo migliore  interagire direttamente con la pool\r\n        uint lastOutput = msg.value;\r\n        uint[] memory _amounts;\r\n        for(uint i=0; i<_orderedTokenAddresses.length-1;i++){\r\n            require(IERC20(_orderedTokenAddresses[i]).approve(_orderedUniswapRouters[i], type(uint256).max),\"Approve Failed!\");\r\n            address[] memory _swapPath = new address[](2); \r\n                _swapPath[0]=_orderedTokenAddresses[i];\r\n                _swapPath[1]=_orderedTokenAddresses[i+1];\r\n                if(i==0){\r\n                    //this would be surely the first swap\r\n\r\n                    _amounts = IUniswapV2Router(_orderedUniswapRouters[i]).swapExactETHForTokens{value: msg.value}(0, _swapPath, address(this), block.timestamp+300);\r\n\r\n                    // _amounts = IUniswapV2Router(_uniswapRouter).swapExactTokensForTokens(lastOutput, 0, _swapPath, address(this), block.timestamp+300);\r\n                    lastOutput = _amounts[_amounts.length-1];\r\n                }\r\n                else if(i<_orderedTokenAddresses.length-2){\r\n                    //these would be surely the mid swapss\r\n                    _amounts = IUniswapV2Router(_orderedUniswapRouters[i]).swapExactTokensForTokens(lastOutput, 0, _swapPath, address(this), block.timestamp+300);\r\n                    lastOutput = _amounts[_amounts.length-1];\r\n                }else{\r\n                    //this would be surely the last swap \r\n                    \r\n                    _amounts = IUniswapV2Router(_orderedUniswapRouters[i]).swapExactTokensForETH(lastOutput, 0, _swapPath, msg.sender, block.timestamp+300);\r\n\r\n                    // _amounts = IUniswapV2Router(_uniswapRouter).swapExactTokensForTokens(lastOutput, 0, _swapPath, msg.sender, block.timestamp+300);\r\n                }\r\n        }\r\n        require(_amounts[_amounts.length-1]>msg.value || _test, \"Arbitrage failed\");\r\n        return _amounts;\r\n    }\r\n\r\n    function multipleSwapUni(address[]memory _orderedTokenAddresses, address _uniswapRouter, bool _test) public payable returns(uint[]memory){\r\n        uint lastOutput = msg.value;\r\n        uint[] memory _amounts;\r\n        for(uint i=0; i<_orderedTokenAddresses.length-1;i++){\r\n            require(IERC20(_orderedTokenAddresses[i]).approve(_uniswapRouter, type(uint256).max),\"Approve Failed!\");\r\n            address[] memory _swapPath = new address[](2); \r\n                _swapPath[0]=_orderedTokenAddresses[i];\r\n                _swapPath[1]=_orderedTokenAddresses[i+1];\r\n                if(i==0){\r\n                    //this would be surely the first swap\r\n\r\n                    _amounts = IUniswapV2Router(_uniswapRouter).swapExactETHForTokens{value: msg.value}(0, _swapPath, address(this), block.timestamp+300);\r\n\r\n                    // _amounts = IUniswapV2Router(_uniswapRouter).swapExactTokensForTokens(lastOutput, 0, _swapPath, address(this), block.timestamp+300);\r\n                    lastOutput = _amounts[_amounts.length-1];\r\n                }\r\n                else if(i<_orderedTokenAddresses.length-2){\r\n                    //these would be surely the mid swapss\r\n                    _amounts = IUniswapV2Router(_uniswapRouter).swapExactTokensForTokens(lastOutput, 0, _swapPath, address(this), block.timestamp+300);\r\n                    lastOutput = _amounts[_amounts.length-1];\r\n                }else{\r\n                    //this would be surely the last swap \r\n                    \r\n                    _amounts = IUniswapV2Router(_uniswapRouter).swapExactTokensForETH(lastOutput, 0, _swapPath, msg.sender, block.timestamp+300);\r\n\r\n                    // _amounts = IUniswapV2Router(_uniswapRouter).swapExactTokensForTokens(lastOutput, 0, _swapPath, msg.sender, block.timestamp+300);\r\n                }\r\n        }\r\n        require(_amounts[_amounts.length-1]>msg.value || _test, \"Arbitrage failed\");\r\n        return _amounts;\r\n    }\r\n\r\n    function multipleSwapUniCelo(address[]memory _orderedTokenAddresses, address _uniswapRouter, bool _test) public payable returns(uint[]memory){\r\n        uint lastOutput = msg.value;\r\n        uint[] memory _amounts;\r\n        for(uint i=0; i<_orderedTokenAddresses.length-1;i++){\r\n            require(IERC20(_orderedTokenAddresses[i]).approve(_uniswapRouter, type(uint256).max),\"Approve Failed!\");\r\n            address[] memory _swapPath = new address[](2); \r\n                _swapPath[0]=_orderedTokenAddresses[i];\r\n                _swapPath[1]=_orderedTokenAddresses[i+1];\r\n                if(i==0){\r\n                    //this would be surely the first swap\r\n\r\n                    // _amounts = IUniswapV2Router(_uniswapRouter).swapExactETHForTokens{value: msg.value}(0, _swapPath, address(this), block.timestamp+300);\r\n\r\n                    _amounts = IUniswapV2Router(_uniswapRouter).swapExactTokensForTokens(lastOutput, 0, _swapPath, address(this), block.timestamp+300);\r\n                    lastOutput = _amounts[_amounts.length-1];\r\n                }\r\n                else if(i<_orderedTokenAddresses.length-2){\r\n                    //these would be surely the mid swapss\r\n                    _amounts = IUniswapV2Router(_uniswapRouter).swapExactTokensForTokens(lastOutput, 0, _swapPath, address(this), block.timestamp+300);\r\n                    lastOutput = _amounts[_amounts.length-1];\r\n                }else{\r\n                    //this would be surely the last swap \r\n                    \r\n                    // _amounts = IUniswapV2Router(_uniswapRouter).swapExactTokensForETH(lastOutput, 0, _swapPath, msg.sender, block.timestamp+300);\r\n\r\n                    _amounts = IUniswapV2Router(_uniswapRouter).swapExactTokensForTokens(lastOutput, 0, _swapPath, msg.sender, block.timestamp+300);\r\n                }\r\n        }\r\n        require(_amounts[_amounts.length-1]>msg.value || _test, \"Arbitrage failed\");\r\n        return _amounts;\r\n    }\r\n}",
  "sourcePath": "C:\\Users\\Fedem\\OneDrive\\Desktop\\fsociety\\Celo\\arbitrage\\contracts\\lifeguard.sol",
  "compiler": {
    "name": "solc",
    "version": "0.8.12+commit.f00d7308.Emscripten.clang"
  },
  "schemaVersion": "3.4.3",
  "updatedAt": "2022-03-09T21:43:47.849Z",
  "networkType": "ethereum",
  "devdoc": {
    "kind": "dev",
    "methods": {},
    "version": 1
  },
  "userdoc": {
    "kind": "user",
    "methods": {},
    "version": 1
  }
}